{
  "transactions": [
    {
      "hash": "0xc6176a50fe5e86b06bf459f81b8f2768421cfffb13a3f36d37db64ce4031ed67",
      "transactionType": "CALL",
      "contractName": "YubiiToken",
      "contractAddress": "0xb876ac7cd0a4ebe37b35ed2d08a69d5dd51a2700",
      "function": "approve(address,uint256)",
      "arguments": [
        "0x19990fD9EDc391aed93779ff21D3d0d6E29054E7",
        "115792089237316195423570985008687907853269984665640564039457584007913129639935"
      ],
      "transaction": {
        "from": "0x83633e8bed0ad8d741f41ae4e8a1248e611cb7f9",
        "to": "0xb876ac7cd0a4ebe37b35ed2d08a69d5dd51a2700",
        "gas": "0xfbd9",
        "value": "0x0",
        "input": "0x095ea7b300000000000000000000000019990fd9edc391aed93779ff21d3d0d6e29054e7ffffffffffffffffffffffffffffffffffffffffffffffffffffffffffffffff",
        "nonce": "0x22",
        "chainId": "0xaa36a7"
      },
      "additionalContracts": [],
      "isFixedGasLimit": false
    },
    {
      "hash": "0xbbb98932a03a1cdb46d40856619272732e9574d94503ec7e9cfc31f09375c202",
      "transactionType": "CALL",
      "contractName": null,
      "contractAddress": "0x19990fd9edc391aed93779ff21d3d0d6e29054e7",
      "function": "buy(bool,uint256)",
      "arguments": [
        "true",
        "0"
      ],
      "transaction": {
        "from": "0x83633e8bed0ad8d741f41ae4e8a1248e611cb7f9",
        "to": "0x19990fd9edc391aed93779ff21d3d0d6e29054e7",
        "gas": "0x3a5cf",
        "value": "0x11c37937e08000",
        "input": "0xe24c469b00000000000000000000000000000000000000000000000000000000000000010000000000000000000000000000000000000000000000000000000000000000",
        "nonce": "0x23",
        "chainId": "0xaa36a7"
      },
      "additionalContracts": [],
      "isFixedGasLimit": false
    }
  ],
  "receipts": [
    {
      "status": "0x1",
      "cumulativeGasUsed": "0xc15549",
      "logs": [
        {
          "address": "0xb876ac7cd0a4ebe37b35ed2d08a69d5dd51a2700",
          "topics": [
            "0x8c5be1e5ebec7d5bd14f71427d1e84f3dd0314c0f7b2291e5b200ac8c7c3b925",
            "0x00000000000000000000000083633e8bed0ad8d741f41ae4e8a1248e611cb7f9",
            "0x00000000000000000000000019990fd9edc391aed93779ff21d3d0d6e29054e7"
          ],
          "data": "0xffffffffffffffffffffffffffffffffffffffffffffffffffffffffffffffff",
          "blockHash": "0x0dd32303f9299a1546fdc9929c4d4ddeb49472714fb6bb64c198f208280d6a44",
          "blockNumber": "0xa8aa1e",
          "blockTimestamp": "0x6a2dbdc8",
          "transactionHash": "0xc6176a50fe5e86b06bf459f81b8f2768421cfffb13a3f36d37db64ce4031ed67",
          "transactionIndex": "0x90",
          "logIndex": "0x11b",
          "removed": false
        }
      ],
      "logsBloom": "0x00000000000000000000000000000000000000000000000000000000200200000000000000000002000000000000000000000000000000000000000000200000000000000000000000000000000000000000000000000000000000000100000000000000000000000000000000000000000000000004208000000000000000000000000000000000000000000000000000000000000000000000000000000000020000000000000000000000000000000000000000000000000000000000002000000000000400000000000000000000000000000000000000000000000000000010000000000000000000000000000000000000000000000000000000000000",
      "type": "0x2",
      "transactionHash": "0xc6176a50fe5e86b06bf459f81b8f2768421cfffb13a3f36d37db64ce4031ed67",
      "transactionIndex": "0x90",
      "blockHash": "0x0dd32303f9299a1546fdc9929c4d4ddeb49472714fb6bb64c198f208280d6a44",
      "blockNumber": "0xa8aa1e",
      "gasUsed": "0xb656",
      "effectiveGasPrice": "0x3fc4e3e1",
      "from": "0x83633e8bed0ad8d741f41ae4e8a1248e611cb7f9",
      "to": "0xb876ac7cd0a4ebe37b35ed2d08a69d5dd51a2700",
      "contractAddress": null
    },
    {
      "status": "0x1",
      "cumulativeGasUsed": "0xc3d3ca",
      "logs": [
        {
          "address": "0xb876ac7cd0a4ebe37b35ed2d08a69d5dd51a2700",
          "topics": [
            "0xddf252ad1be2c89b69c2b068fc378daa952ba7f163c4a11628f55a4df523b3ef",
            "0x00000000000000000000000083633e8bed0ad8d741f41ae4e8a1248e611cb7f9",
            "0x00000000000000000000000083633e8bed0ad8d741f41ae4e8a1248e611cb7f9"
          ],
          "data": "0x00000000000000000000000000000000000000000000000000000da475abf000",
          "blockHash": "0x0dd32303f9299a1546fdc9929c4d4ddeb49472714fb6bb64c198f208280d6a44",
          "blockNumber": "0xa8aa1e",
          "blockTimestamp": "0x6a2dbdc8",
          "transactionHash": "0xbbb98932a03a1cdb46d40856619272732e9574d94503ec7e9cfc31f09375c202",
          "transactionIndex": "0x91",
          "logIndex": "0x11c",
          "removed": false
        },
        {
          "address": "0xe03a1074c86cfedd5c142c4f04f1a1536e203543",
          "topics": [
            "0x40e9cecb9f5f1f1c5b9c97dec2917b7ee92e57ba5563708daca94dd84ad7112f",
            "0x5601ad9112a9bf46c4869febcd4900748a0b7d313e157e6fb06ab17fed1c42dd",
            "0x00000000000000000000000019990fd9edc391aed93779ff21d3d0d6e29054e7"
          ],
          "data": "0xfffffffffffffffffffffffffffffffffffffffffffffffffff1ca056ce60000000000000000000000000000000000000000000000000000000a20fbb19d12bd0000000000000000000000000000000000000000b703964a85f75c9ae72eecc0000000000000000000000000000000000000000000000000002386f26fc10000ffffffffffffffffffffffffffffffffffffffffffffffffffffffffffffe5c70000000000000000000000000000000000000000000000000000000000000bb8",
          "blockHash": "0x0dd32303f9299a1546fdc9929c4d4ddeb49472714fb6bb64c198f208280d6a44",
          "blockNumber": "0xa8aa1e",
          "blockTimestamp": "0x6a2dbdc8",
          "transactionHash": "0xbbb98932a03a1cdb46d40856619272732e9574d94503ec7e9cfc31f09375c202",
          "transactionIndex": "0x91",
          "logIndex": "0x11d",
          "removed": false
        },
        {
          "address": "0x0a516076b58fd38717bde0575b973654a2a408e1",
          "topics": [
            "0xddf252ad1be2c89b69c2b068fc378daa952ba7f163c4a11628f55a4df523b3ef",
            "0x000000000000000000000000e03a1074c86cfedd5c142c4f04f1a1536e203543",
            "0x00000000000000000000000083633e8bed0ad8d741f41ae4e8a1248e611cb7f9"
          ],
          "data": "0x000000000000000000000000000000000000000000000000000a20fbb19d12bd",
          "blockHash": "0x0dd32303f9299a1546fdc9929c4d4ddeb49472714fb6bb64c198f208280d6a44",
          "blockNumber": "0xa8aa1e",
          "blockTimestamp": "0x6a2dbdc8",
          "transactionHash": "0xbbb98932a03a1cdb46d40856619272732e9574d94503ec7e9cfc31f09375c202",
          "transactionIndex": "0x91",
          "logIndex": "0x11e",
          "removed": false
        },
        {
          "address": "0x19990fd9edc391aed93779ff21d3d0d6e29054e7",
          "topics": [
            "0xf83f2b306d0785a8fd91972b82022c61df48599aa76e1fbaef976390424f9f23",
            "0x00000000000000000000000083633e8bed0ad8d741f41ae4e8a1248e611cb7f9",
            "0x0000000000000000000000000000000000000000000000000000000000000001"
          ],
          "data": "0x0000000000000000000000000000000000000000000000000011c37937e08000000000000000000000000000000000000000000000000000000a20fbb19d12bd00000000000000000000000000000000000000000000000000000da475abf000",
          "blockHash": "0x0dd32303f9299a1546fdc9929c4d4ddeb49472714fb6bb64c198f208280d6a44",
          "blockNumber": "0xa8aa1e",
          "blockTimestamp": "0x6a2dbdc8",
          "transactionHash": "0xbbb98932a03a1cdb46d40856619272732e9574d94503ec7e9cfc31f09375c202",
          "transactionIndex": "0x91",
          "logIndex": "0x11f",
          "removed": false
        }
      ],
      "logsBloom": "0x00004000000000000000000000000000000000000000000000004000200200000008000010000002000000000000000000000100040000000000000000040000000000000000000000000008002000000000000000042020000000000100800000000000000000000000000080000000000000000004308000000010000000000000000000000000000010000000000000000000000000000000000020000000000000000000000000000000000000000000000000000800000000000000002000000002000400000000000000000000000000000000000000001000000040001000000000000000004000000000000000000100000020000000000000000000",
      "type": "0x2",
      "transactionHash": "0xbbb98932a03a1cdb46d40856619272732e9574d94503ec7e9cfc31f09375c202",
      "transactionIndex": "0x91",
      "blockHash": "0x0dd32303f9299a1546fdc9929c4d4ddeb49472714fb6bb64c198f208280d6a44",
      "blockNumber": "0xa8aa1e",
      "gasUsed": "0x27e81",
      "effectiveGasPrice": "0x3fc4e3e1",
      "from": "0x83633e8bed0ad8d741f41ae4e8a1248e611cb7f9",
      "to": "0x19990fd9edc391aed93779ff21d3d0d6e29054e7",
      "contractAddress": null
    }
  ],
  "libraries": [],
  "pending": [],
  "returns": {},
  "timestamp": 1781382600614,
  "chain": 11155111,
  "commit": "45d1beb"
}