{
  "transactions": [
    {
      "hash": "0xca5e8bb6bc24ee9fd8ba774da5a97b75a0faa43deb2e625e8d839640a37f84df",
      "transactionType": "CALL",
      "contractName": "MatchMarket",
      "contractAddress": "0x19990fd9edc391aed93779ff21d3d0d6e29054e7",
      "function": "buy(bool,uint256)",
      "arguments": [
        "true",
        "0"
      ],
      "transaction": {
        "from": "0x83633e8bed0ad8d741f41ae4e8a1248e611cb7f9",
        "to": "0x19990fd9edc391aed93779ff21d3d0d6e29054e7",
        "gas": "0x32643",
        "value": "0x11c37937e08000",
        "input": "0xe24c469b00000000000000000000000000000000000000000000000000000000000000010000000000000000000000000000000000000000000000000000000000000000",
        "nonce": "0x55",
        "chainId": "0xaa36a7"
      },
      "additionalContracts": [],
      "isFixedGasLimit": false
    }
  ],
  "receipts": [
    {
      "status": "0x1",
      "cumulativeGasUsed": "0x14b541c",
      "logs": [
        {
          "address": "0xb876ac7cd0a4ebe37b35ed2d08a69d5dd51a2700",
          "topics": [
            "0xddf252ad1be2c89b69c2b068fc378daa952ba7f163c4a11628f55a4df523b3ef",
            "0x00000000000000000000000083633e8bed0ad8d741f41ae4e8a1248e611cb7f9",
            "0x00000000000000000000000083633e8bed0ad8d741f41ae4e8a1248e611cb7f9"
          ],
          "data": "0x00000000000000000000000000000000000000000000000000000da475abf000",
          "blockHash": "0xd459749c8f2df3ac4ebe31c3c893917f4922870948c3862cf6cab45a506bd590",
          "blockNumber": "0xa8d482",
          "blockTimestamp": "0x6a2fbe14",
          "transactionHash": "0xca5e8bb6bc24ee9fd8ba774da5a97b75a0faa43deb2e625e8d839640a37f84df",
          "transactionIndex": "0xc8",
          "logIndex": "0x256",
          "removed": false
        },
        {
          "address": "0xe03a1074c86cfedd5c142c4f04f1a1536e203543",
          "topics": [
            "0x40e9cecb9f5f1f1c5b9c97dec2917b7ee92e57ba5563708daca94dd84ad7112f",
            "0x5601ad9112a9bf46c4869febcd4900748a0b7d313e157e6fb06ab17fed1c42dd",
            "0x00000000000000000000000019990fd9edc391aed93779ff21d3d0d6e29054e7"
          ],
          "data": "0xfffffffffffffffffffffffffffffffffffffffffffffffffff1ca056ce60000000000000000000000000000000000000000000000000000000a1d2e4d1018050000000000000000000000000000000000000000b6e6eeb2359b7fafcbcc2b34000000000000000000000000000000000000000000000000002386f26fc10000ffffffffffffffffffffffffffffffffffffffffffffffffffffffffffffe5bb0000000000000000000000000000000000000000000000000000000000000bb8",
          "blockHash": "0xd459749c8f2df3ac4ebe31c3c893917f4922870948c3862cf6cab45a506bd590",
          "blockNumber": "0xa8d482",
          "blockTimestamp": "0x6a2fbe14",
          "transactionHash": "0xca5e8bb6bc24ee9fd8ba774da5a97b75a0faa43deb2e625e8d839640a37f84df",
          "transactionIndex": "0xc8",
          "logIndex": "0x257",
          "removed": false
        },
        {
          "address": "0x0a516076b58fd38717bde0575b973654a2a408e1",
          "topics": [
            "0xddf252ad1be2c89b69c2b068fc378daa952ba7f163c4a11628f55a4df523b3ef",
            "0x000000000000000000000000e03a1074c86cfedd5c142c4f04f1a1536e203543",
            "0x00000000000000000000000083633e8bed0ad8d741f41ae4e8a1248e611cb7f9"
          ],
          "data": "0x000000000000000000000000000000000000000000000000000a1d2e4d101805",
          "blockHash": "0xd459749c8f2df3ac4ebe31c3c893917f4922870948c3862cf6cab45a506bd590",
          "blockNumber": "0xa8d482",
          "blockTimestamp": "0x6a2fbe14",
          "transactionHash": "0xca5e8bb6bc24ee9fd8ba774da5a97b75a0faa43deb2e625e8d839640a37f84df",
          "transactionIndex": "0xc8",
          "logIndex": "0x258",
          "removed": false
        },
        {
          "address": "0x19990fd9edc391aed93779ff21d3d0d6e29054e7",
          "topics": [
            "0xf83f2b306d0785a8fd91972b82022c61df48599aa76e1fbaef976390424f9f23",
            "0x00000000000000000000000083633e8bed0ad8d741f41ae4e8a1248e611cb7f9",
            "0x0000000000000000000000000000000000000000000000000000000000000001"
          ],
          "data": "0x0000000000000000000000000000000000000000000000000011c37937e08000000000000000000000000000000000000000000000000000000a1d2e4d10180500000000000000000000000000000000000000000000000000000da475abf000",
          "blockHash": "0xd459749c8f2df3ac4ebe31c3c893917f4922870948c3862cf6cab45a506bd590",
          "blockNumber": "0xa8d482",
          "blockTimestamp": "0x6a2fbe14",
          "transactionHash": "0xca5e8bb6bc24ee9fd8ba774da5a97b75a0faa43deb2e625e8d839640a37f84df",
          "transactionIndex": "0xc8",
          "logIndex": "0x259",
          "removed": false
        }
      ],
      "logsBloom": "0x00004000000000000000000000000000000000000000000000004000200200000008000010000002000000000000000000000100040000000000000000040000000000000000000000000008002000000000000000042020000000000100800000000000000000000000000080000000000000000004308000000010000000000000000000000000000010000000000000000000000000000000000020000000000000000000000000000000000000000000000000000800000000000000002000000002000400000000000000000000000000000000000000001000000040001000000000000000004000000000000000000100000020000000000000000000",
      "type": "0x2",
      "transactionHash": "0xca5e8bb6bc24ee9fd8ba774da5a97b75a0faa43deb2e625e8d839640a37f84df",
      "transactionIndex": "0xc8",
      "blockHash": "0xd459749c8f2df3ac4ebe31c3c893917f4922870948c3862cf6cab45a506bd590",
      "blockNumber": "0xa8d482",
      "gasUsed": "0x2274b",
      "effectiveGasPrice": "0xf0f04724",
      "from": "0x83633e8bed0ad8d741f41ae4e8a1248e611cb7f9",
      "to": "0x19990fd9edc391aed93779ff21d3d0d6e29054e7",
      "contractAddress": null
    }
  ],
  "libraries": [],
  "pending": [],
  "returns": {},
  "timestamp": 1781513748714,
  "chain": 11155111,
  "commit": "5e8845e"
}