{
  "transactions": [
    {
      "hash": "0x92c685fff00742e1d657c8975b964210fa632502e57e03abf2b8003b559e2525",
      "transactionType": "CALL",
      "contractName": "MatchMarket",
      "contractAddress": "0xed61cea1658bf0c2f934882a2a27c4b6948c6207",
      "function": "reduceTax(uint256,uint256)",
      "arguments": [
        "300",
        "300"
      ],
      "transaction": {
        "from": "0x83633e8bed0ad8d741f41ae4e8a1248e611cb7f9",
        "to": "0xed61cea1658bf0c2f934882a2a27c4b6948c6207",
        "gas": "0xaeaa",
        "value": "0x0",
        "input": "0xb9a410ff000000000000000000000000000000000000000000000000000000000000012c000000000000000000000000000000000000000000000000000000000000012c",
        "nonce": "0x4f",
        "chainId": "0xaa36a7"
      },
      "additionalContracts": [],
      "isFixedGasLimit": false
    },
    {
      "hash": "0x5b1b013e62b074d17dfd30d9d1423ff4903746186f2601bd9462a7a982b04892",
      "transactionType": "CALL",
      "contractName": "YubiiToken",
      "contractAddress": "0xacb4474196bda1d8ba0ecc7b3b72178c09cd2f21",
      "function": "approve(address,uint256)",
      "arguments": [
        "0xED61ceA1658bF0c2F934882a2A27C4b6948c6207",
        "115792089237316195423570985008687907853269984665640564039457584007913129639935"
      ],
      "transaction": {
        "from": "0x83633e8bed0ad8d741f41ae4e8a1248e611cb7f9",
        "to": "0xacb4474196bda1d8ba0ecc7b3b72178c09cd2f21",
        "gas": "0x96a4",
        "value": "0x0",
        "input": "0x095ea7b3000000000000000000000000ed61cea1658bf0c2f934882a2a27c4b6948c6207ffffffffffffffffffffffffffffffffffffffffffffffffffffffffffffffff",
        "nonce": "0x50",
        "chainId": "0xaa36a7"
      },
      "additionalContracts": [],
      "isFixedGasLimit": false
    },
    {
      "hash": "0x76e69deba0c05463ad906c67201f9114a49369e3da9df9f0eed963c5a0a87a11",
      "transactionType": "CALL",
      "contractName": "MatchMarket",
      "contractAddress": "0xed61cea1658bf0c2f934882a2a27c4b6948c6207",
      "function": "buy(bool,uint256)",
      "arguments": [
        "true",
        "0"
      ],
      "transaction": {
        "from": "0x83633e8bed0ad8d741f41ae4e8a1248e611cb7f9",
        "to": "0xed61cea1658bf0c2f934882a2a27c4b6948c6207",
        "gas": "0x28c73",
        "value": "0x11c37937e08000",
        "input": "0xe24c469b00000000000000000000000000000000000000000000000000000000000000010000000000000000000000000000000000000000000000000000000000000000",
        "nonce": "0x51",
        "chainId": "0xaa36a7"
      },
      "additionalContracts": [],
      "isFixedGasLimit": false
    },
    {
      "hash": "0x12c4bc51e7eb9bf3fe89ceca9f9834fe92e232411ac99e82c8f597ea2e0272b3",
      "transactionType": "CALL",
      "contractName": "MatchMarket",
      "contractAddress": "0xed61cea1658bf0c2f934882a2a27c4b6948c6207",
      "function": "removeTax()",
      "arguments": [],
      "transaction": {
        "from": "0x83633e8bed0ad8d741f41ae4e8a1248e611cb7f9",
        "to": "0xed61cea1658bf0c2f934882a2a27c4b6948c6207",
        "gas": "0x8fef",
        "value": "0x0",
        "input": "0x2f5f2572",
        "nonce": "0x52",
        "chainId": "0xaa36a7"
      },
      "additionalContracts": [],
      "isFixedGasLimit": false
    },
    {
      "hash": "0x01ce1881281b44ffbda6f8eece94547e44635245bcc57c505418bcf9e3c776c4",
      "transactionType": "CALL",
      "contractName": "YubiiToken",
      "contractAddress": "0xacb4474196bda1d8ba0ecc7b3b72178c09cd2f21",
      "function": "approve(address,uint256)",
      "arguments": [
        "0xED61ceA1658bF0c2F934882a2A27C4b6948c6207",
        "115792089237316195423570985008687907853269984665640564039457584007913129639935"
      ],
      "transaction": {
        "from": "0x83633e8bed0ad8d741f41ae4e8a1248e611cb7f9",
        "to": "0xacb4474196bda1d8ba0ecc7b3b72178c09cd2f21",
        "gas": "0x96a4",
        "value": "0x0",
        "input": "0x095ea7b3000000000000000000000000ed61cea1658bf0c2f934882a2a27c4b6948c6207ffffffffffffffffffffffffffffffffffffffffffffffffffffffffffffffff",
        "nonce": "0x53",
        "chainId": "0xaa36a7"
      },
      "additionalContracts": [],
      "isFixedGasLimit": false
    },
    {
      "hash": "0xd4ba56357c8b0dc82f47675b916a448d08ebd572be8d2a854960a233db664f05",
      "transactionType": "CALL",
      "contractName": "MatchMarket",
      "contractAddress": "0xed61cea1658bf0c2f934882a2a27c4b6948c6207",
      "function": "buy(bool,uint256)",
      "arguments": [
        "true",
        "0"
      ],
      "transaction": {
        "from": "0x83633e8bed0ad8d741f41ae4e8a1248e611cb7f9",
        "to": "0xed61cea1658bf0c2f934882a2a27c4b6948c6207",
        "gas": "0x2530f",
        "value": "0x11c37937e08000",
        "input": "0xe24c469b00000000000000000000000000000000000000000000000000000000000000010000000000000000000000000000000000000000000000000000000000000000",
        "nonce": "0x54",
        "chainId": "0xaa36a7"
      },
      "additionalContracts": [],
      "isFixedGasLimit": false
    }
  ],
  "receipts": [
    {
      "status": "0x1",
      "cumulativeGasUsed": "0x15f2334",
      "logs": [],
      "logsBloom": "0x00000000000000000000000000000000000000000000000000000000000000000000000000000000000000000000000000000000000000000000000000000000000000000000000000000000000000000000000000000000000000000000000000000000000000000000000000000000000000000000000000000000000000000000000000000000000000000000000000000000000000000000000000000000000000000000000000000000000000000000000000000000000000000000000000000000000000000000000000000000000000000000000000000000000000000000000000000000000000000000000000000000000000000000000000000000",
      "type": "0x2",
      "transactionHash": "0x92c685fff00742e1d657c8975b964210fa632502e57e03abf2b8003b559e2525",
      "transactionIndex": "0xcc",
      "blockHash": "0x7d3b88f9637bd010e66aed704813a3278554e82339e038d9b9d2dfe42dadd271",
      "blockNumber": "0xa8c4b4",
      "gasUsed": "0x7e75",
      "effectiveGasPrice": "0x3f3ac301",
      "from": "0x83633e8bed0ad8d741f41ae4e8a1248e611cb7f9",
      "to": "0xed61cea1658bf0c2f934882a2a27c4b6948c6207",
      "contractAddress": null
    },
    {
      "status": "0x1",
      "cumulativeGasUsed": "0x15f8a35",
      "logs": [
        {
          "address": "0xacb4474196bda1d8ba0ecc7b3b72178c09cd2f21",
          "topics": [
            "0x8c5be1e5ebec7d5bd14f71427d1e84f3dd0314c0f7b2291e5b200ac8c7c3b925",
            "0x00000000000000000000000083633e8bed0ad8d741f41ae4e8a1248e611cb7f9",
            "0x000000000000000000000000ed61cea1658bf0c2f934882a2a27c4b6948c6207"
          ],
          "data": "0xffffffffffffffffffffffffffffffffffffffffffffffffffffffffffffffff",
          "blockHash": "0x7d3b88f9637bd010e66aed704813a3278554e82339e038d9b9d2dfe42dadd271",
          "blockNumber": "0xa8c4b4",
          "blockTimestamp": "0x6a2f0000",
          "transactionHash": "0xd4ba56357c8b0dc82f47675b916a448d08ebd572be8d2a854960a233db664f05",
          "transactionIndex": "0xcd",
          "logIndex": "0x24b",
          "removed": false
        }
      ],
      "logsBloom": "0x00000000000000000000000000000000000000000000000000000000000000000000000040000000000000000000000000000000000000000000000000200000000000004000000000000000000000000000000000000000000000000000000000000040000000000000000000000000000000000004008010000000000000000000000000002000000000000000000000000000000000000000000000000000020000000000000000000000000000000000000000000000000000000000000000000000000400000000000000000000000000000000000000020000000000000010000000000000000000000000000000000000000000000000000000000000",
      "type": "0x2",
      "transactionHash": "0xd4ba56357c8b0dc82f47675b916a448d08ebd572be8d2a854960a233db664f05",
      "transactionIndex": "0xcd",
      "blockHash": "0x7d3b88f9637bd010e66aed704813a3278554e82339e038d9b9d2dfe42dadd271",
      "blockNumber": "0xa8c4b4",
      "gasUsed": "0x6701",
      "effectiveGasPrice": "0x3f3ac301",
      "from": "0x83633e8bed0ad8d741f41ae4e8a1248e611cb7f9",
      "to": "0xacb4474196bda1d8ba0ecc7b3b72178c09cd2f21",
      "contractAddress": null
    },
    {
      "status": "0x1",
      "cumulativeGasUsed": "0x1616293",
      "logs": [
        {
          "address": "0xacb4474196bda1d8ba0ecc7b3b72178c09cd2f21",
          "topics": [
            "0xddf252ad1be2c89b69c2b068fc378daa952ba7f163c4a11628f55a4df523b3ef",
            "0x00000000000000000000000083633e8bed0ad8d741f41ae4e8a1248e611cb7f9",
            "0x00000000000000000000000083633e8bed0ad8d741f41ae4e8a1248e611cb7f9"
          ],
          "data": "0x00000000000000000000000000000000000000000000000000000da475abf000",
          "blockHash": "0x7d3b88f9637bd010e66aed704813a3278554e82339e038d9b9d2dfe42dadd271",
          "blockNumber": "0xa8c4b4",
          "blockTimestamp": "0x6a2f0000",
          "transactionHash": "0x01ce1881281b44ffbda6f8eece94547e44635245bcc57c505418bcf9e3c776c4",
          "transactionIndex": "0xce",
          "logIndex": "0x24c",
          "removed": false
        },
        {
          "address": "0xe03a1074c86cfedd5c142c4f04f1a1536e203543",
          "topics": [
            "0x40e9cecb9f5f1f1c5b9c97dec2917b7ee92e57ba5563708daca94dd84ad7112f",
            "0xc61d2591c9abc580fae53ce54a129c28acd8816785e6a7a6c6d1635abeb71b99",
            "0x000000000000000000000000ed61cea1658bf0c2f934882a2a27c4b6948c6207"
          ],
          "data": "0xffffffffffffffffffffffffffffffffffffffffffffffffffeec4f360d6e000000000000000000000000000000000000000000000000000000208855ca41a690000000000000000000000000000000000000000510d0e91bf2961524f7c2ec1000000000000000000000000000000000000000000000000002386f26fc10000ffffffffffffffffffffffffffffffffffffffffffffffffffffffffffffa6240000000000000000000000000000000000000000000000000000000000000bb8",
          "blockHash": "0x7d3b88f9637bd010e66aed704813a3278554e82339e038d9b9d2dfe42dadd271",
          "blockNumber": "0xa8c4b4",
          "blockTimestamp": "0x6a2f0000",
          "transactionHash": "0x01ce1881281b44ffbda6f8eece94547e44635245bcc57c505418bcf9e3c776c4",
          "transactionIndex": "0xce",
          "logIndex": "0x24d",
          "removed": false
        },
        {
          "address": "0xed949efee89ef967146a0a9e7f2c87c0f7b28c08",
          "topics": [
            "0xddf252ad1be2c89b69c2b068fc378daa952ba7f163c4a11628f55a4df523b3ef",
            "0x000000000000000000000000e03a1074c86cfedd5c142c4f04f1a1536e203543",
            "0x00000000000000000000000083633e8bed0ad8d741f41ae4e8a1248e611cb7f9"
          ],
          "data": "0x000000000000000000000000000000000000000000000000000208855ca41a69",
          "blockHash": "0x7d3b88f9637bd010e66aed704813a3278554e82339e038d9b9d2dfe42dadd271",
          "blockNumber": "0xa8c4b4",
          "blockTimestamp": "0x6a2f0000",
          "transactionHash": "0x01ce1881281b44ffbda6f8eece94547e44635245bcc57c505418bcf9e3c776c4",
          "transactionIndex": "0xce",
          "logIndex": "0x24e",
          "removed": false
        },
        {
          "address": "0xed61cea1658bf0c2f934882a2a27c4b6948c6207",
          "topics": [
            "0xf83f2b306d0785a8fd91972b82022c61df48599aa76e1fbaef976390424f9f23",
            "0x00000000000000000000000083633e8bed0ad8d741f41ae4e8a1248e611cb7f9",
            "0x0000000000000000000000000000000000000000000000000000000000000001"
          ],
          "data": "0x0000000000000000000000000000000000000000000000000011c37937e08000000000000000000000000000000000000000000000000000000208855ca41a6900000000000000000000000000000000000000000000000000000da475abf000",
          "blockHash": "0x7d3b88f9637bd010e66aed704813a3278554e82339e038d9b9d2dfe42dadd271",
          "blockNumber": "0xa8c4b4",
          "blockTimestamp": "0x6a2f0000",
          "transactionHash": "0x01ce1881281b44ffbda6f8eece94547e44635245bcc57c505418bcf9e3c776c4",
          "transactionIndex": "0xce",
          "logIndex": "0x24f",
          "removed": false
        }
      ],
      "logsBloom": "0x00000000000000000000000000000000000000001000000000004000000000000000000040000000000000000080000000000100040000000000000000040000000000004000000000000008000800000000000000040020002000000000800000000040000000000000000080000000000000000004108010000010000000000000000000002000000010000000000000020008000000000000000020000000000000000000000000000000200000000000000000000000000000000000000000000002000400000000000000000000000000000000000000021000000040001010000000000000004000000000000400000000000000000000000000000000",
      "type": "0x2",
      "transactionHash": "0x01ce1881281b44ffbda6f8eece94547e44635245bcc57c505418bcf9e3c776c4",
      "transactionIndex": "0xce",
      "blockHash": "0x7d3b88f9637bd010e66aed704813a3278554e82339e038d9b9d2dfe42dadd271",
      "blockNumber": "0xa8c4b4",
      "gasUsed": "0x1d85e",
      "effectiveGasPrice": "0x3f3ac301",
      "from": "0x83633e8bed0ad8d741f41ae4e8a1248e611cb7f9",
      "to": "0xed61cea1658bf0c2f934882a2a27c4b6948c6207",
      "contractAddress": null
    },
    {
      "status": "0x1",
      "cumulativeGasUsed": "0x161c4fe",
      "logs": [],
      "logsBloom": "0x00000000000000000000000000000000000000000000000000000000000000000000000000000000000000000000000000000000000000000000000000000000000000000000000000000000000000000000000000000000000000000000000000000000000000000000000000000000000000000000000000000000000000000000000000000000000000000000000000000000000000000000000000000000000000000000000000000000000000000000000000000000000000000000000000000000000000000000000000000000000000000000000000000000000000000000000000000000000000000000000000000000000000000000000000000000",
      "type": "0x2",
      "transactionHash": "0x76e69deba0c05463ad906c67201f9114a49369e3da9df9f0eed963c5a0a87a11",
      "transactionIndex": "0xcf",
      "blockHash": "0x7d3b88f9637bd010e66aed704813a3278554e82339e038d9b9d2dfe42dadd271",
      "blockNumber": "0xa8c4b4",
      "gasUsed": "0x626b",
      "effectiveGasPrice": "0x3f3ac301",
      "from": "0x83633e8bed0ad8d741f41ae4e8a1248e611cb7f9",
      "to": "0xed61cea1658bf0c2f934882a2a27c4b6948c6207",
      "contractAddress": null
    },
    {
      "status": "0x1",
      "cumulativeGasUsed": "0x1622bff",
      "logs": [
        {
          "address": "0xacb4474196bda1d8ba0ecc7b3b72178c09cd2f21",
          "topics": [
            "0x8c5be1e5ebec7d5bd14f71427d1e84f3dd0314c0f7b2291e5b200ac8c7c3b925",
            "0x00000000000000000000000083633e8bed0ad8d741f41ae4e8a1248e611cb7f9",
            "0x000000000000000000000000ed61cea1658bf0c2f934882a2a27c4b6948c6207"
          ],
          "data": "0xffffffffffffffffffffffffffffffffffffffffffffffffffffffffffffffff",
          "blockHash": "0x7d3b88f9637bd010e66aed704813a3278554e82339e038d9b9d2dfe42dadd271",
          "blockNumber": "0xa8c4b4",
          "blockTimestamp": "0x6a2f0000",
          "transactionHash": "0x5b1b013e62b074d17dfd30d9d1423ff4903746186f2601bd9462a7a982b04892",
          "transactionIndex": "0xd0",
          "logIndex": "0x250",
          "removed": false
        }
      ],
      "logsBloom": "0x00000000000000000000000000000000000000000000000000000000000000000000000040000000000000000000000000000000000000000000000000200000000000004000000000000000000000000000000000000000000000000000000000000040000000000000000000000000000000000004008010000000000000000000000000002000000000000000000000000000000000000000000000000000020000000000000000000000000000000000000000000000000000000000000000000000000400000000000000000000000000000000000000020000000000000010000000000000000000000000000000000000000000000000000000000000",
      "type": "0x2",
      "transactionHash": "0x5b1b013e62b074d17dfd30d9d1423ff4903746186f2601bd9462a7a982b04892",
      "transactionIndex": "0xd0",
      "blockHash": "0x7d3b88f9637bd010e66aed704813a3278554e82339e038d9b9d2dfe42dadd271",
      "blockNumber": "0xa8c4b4",
      "gasUsed": "0x6701",
      "effectiveGasPrice": "0x3f3ac301",
      "from": "0x83633e8bed0ad8d741f41ae4e8a1248e611cb7f9",
      "to": "0xacb4474196bda1d8ba0ecc7b3b72178c09cd2f21",
      "contractAddress": null
    },
    {
      "status": "0x1",
      "cumulativeGasUsed": "0x163dacf",
      "logs": [
        {
          "address": "0xacb4474196bda1d8ba0ecc7b3b72178c09cd2f21",
          "topics": [
            "0xddf252ad1be2c89b69c2b068fc378daa952ba7f163c4a11628f55a4df523b3ef",
            "0x00000000000000000000000083633e8bed0ad8d741f41ae4e8a1248e611cb7f9",
            "0x00000000000000000000000083633e8bed0ad8d741f41ae4e8a1248e611cb7f9"
          ],
          "data": "0x00000000000000000000000000000000000000000000000000000da475abf000",
          "blockHash": "0x7d3b88f9637bd010e66aed704813a3278554e82339e038d9b9d2dfe42dadd271",
          "blockNumber": "0xa8c4b4",
          "blockTimestamp": "0x6a2f0000",
          "transactionHash": "0x12c4bc51e7eb9bf3fe89ceca9f9834fe92e232411ac99e82c8f597ea2e0272b3",
          "transactionIndex": "0xd1",
          "logIndex": "0x251",
          "removed": false
        },
        {
          "address": "0xe03a1074c86cfedd5c142c4f04f1a1536e203543",
          "topics": [
            "0x40e9cecb9f5f1f1c5b9c97dec2917b7ee92e57ba5563708daca94dd84ad7112f",
            "0xc61d2591c9abc580fae53ce54a129c28acd8816785e6a7a6c6d1635abeb71b99",
            "0x000000000000000000000000ed61cea1658bf0c2f934882a2a27c4b6948c6207"
          ],
          "data": "0xffffffffffffffffffffffffffffffffffffffffffffffffffee3c86c81f8000000000000000000000000000000000000000000000000000000188844ad9e76200000000000000000000000000000000000000004600acef3ca01d246e778ae2000000000000000000000000000000000000000000000000002386f26fc10000ffffffffffffffffffffffffffffffffffffffffffffffffffffffffffff9ab10000000000000000000000000000000000000000000000000000000000000bb8",
          "blockHash": "0x7d3b88f9637bd010e66aed704813a3278554e82339e038d9b9d2dfe42dadd271",
          "blockNumber": "0xa8c4b4",
          "blockTimestamp": "0x6a2f0000",
          "transactionHash": "0x12c4bc51e7eb9bf3fe89ceca9f9834fe92e232411ac99e82c8f597ea2e0272b3",
          "transactionIndex": "0xd1",
          "logIndex": "0x252",
          "removed": false
        },
        {
          "address": "0xed949efee89ef967146a0a9e7f2c87c0f7b28c08",
          "topics": [
            "0xddf252ad1be2c89b69c2b068fc378daa952ba7f163c4a11628f55a4df523b3ef",
            "0x000000000000000000000000e03a1074c86cfedd5c142c4f04f1a1536e203543",
            "0x00000000000000000000000083633e8bed0ad8d741f41ae4e8a1248e611cb7f9"
          ],
          "data": "0x000000000000000000000000000000000000000000000000000188844ad9e762",
          "blockHash": "0x7d3b88f9637bd010e66aed704813a3278554e82339e038d9b9d2dfe42dadd271",
          "blockNumber": "0xa8c4b4",
          "blockTimestamp": "0x6a2f0000",
          "transactionHash": "0x12c4bc51e7eb9bf3fe89ceca9f9834fe92e232411ac99e82c8f597ea2e0272b3",
          "transactionIndex": "0xd1",
          "logIndex": "0x253",
          "removed": false
        },
        {
          "address": "0xed61cea1658bf0c2f934882a2a27c4b6948c6207",
          "topics": [
            "0xf83f2b306d0785a8fd91972b82022c61df48599aa76e1fbaef976390424f9f23",
            "0x00000000000000000000000083633e8bed0ad8d741f41ae4e8a1248e611cb7f9",
            "0x0000000000000000000000000000000000000000000000000000000000000001"
          ],
          "data": "0x0000000000000000000000000000000000000000000000000011c37937e08000000000000000000000000000000000000000000000000000000188844ad9e76200000000000000000000000000000000000000000000000000000da475abf000",
          "blockHash": "0x7d3b88f9637bd010e66aed704813a3278554e82339e038d9b9d2dfe42dadd271",
          "blockNumber": "0xa8c4b4",
          "blockTimestamp": "0x6a2f0000",
          "transactionHash": "0x12c4bc51e7eb9bf3fe89ceca9f9834fe92e232411ac99e82c8f597ea2e0272b3",
          "transactionIndex": "0xd1",
          "logIndex": "0x254",
          "removed": false
        }
      ],
      "logsBloom": "0x00000000000000000000000000000000000000001000000000004000000000000000000040000000000000000080000000000100040000000000000000040000000000004000000000000008000800000000000000040020002000000000800000000040000000000000000080000000000000000004108010000010000000000000000000002000000010000000000000020008000000000000000020000000000000000000000000000000200000000000000000000000000000000000000000000002000400000000000000000000000000000000000000021000000040001010000000000000004000000000000400000000000000000000000000000000",
      "type": "0x2",
      "transactionHash": "0x12c4bc51e7eb9bf3fe89ceca9f9834fe92e232411ac99e82c8f597ea2e0272b3",
      "transactionIndex": "0xd1",
      "blockHash": "0x7d3b88f9637bd010e66aed704813a3278554e82339e038d9b9d2dfe42dadd271",
      "blockNumber": "0xa8c4b4",
      "gasUsed": "0x1aed0",
      "effectiveGasPrice": "0x3f3ac301",
      "from": "0x83633e8bed0ad8d741f41ae4e8a1248e611cb7f9",
      "to": "0xed61cea1658bf0c2f934882a2a27c4b6948c6207",
      "contractAddress": null
    }
  ],
  "libraries": [],
  "pending": [],
  "returns": {},
  "timestamp": 1781465089492,
  "chain": 11155111,
  "commit": "95aa742"
}