{
  "transactions": [
    {
      "hash": "0x9ac07901ff2325574069c58895a3b8207effd143ee61340d99ce7d47e6d1edfa",
      "transactionType": "CALL",
      "contractName": null,
      "contractAddress": "0xad8f38a0940351f0602cbbd4ab39b4f06c038aaf",
      "function": "approve(address,uint256)",
      "arguments": [
        "0xd7E7fc8F64de9938cc1af4BFe2Ed75117b1a0925",
        "115792089237316195423570985008687907853269984665640564039457584007913129639935"
      ],
      "transaction": {
        "from": "0x83633e8bed0ad8d741f41ae4e8a1248e611cb7f9",
        "to": "0xad8f38a0940351f0602cbbd4ab39b4f06c038aaf",
        "gas": "0xf9a4",
        "value": "0x0",
        "input": "0x095ea7b3000000000000000000000000d7e7fc8f64de9938cc1af4bfe2ed75117b1a0925ffffffffffffffffffffffffffffffffffffffffffffffffffffffffffffffff",
        "nonce": "0x44",
        "chainId": "0xaa36a7"
      },
      "additionalContracts": [],
      "isFixedGasLimit": false
    },
    {
      "hash": "0x922b0be0d6d30071450ebacd138db287bafbd0ae88a422239d80eb9d9fb5b7d4",
      "transactionType": "CALL",
      "contractName": "MatchMarket",
      "contractAddress": "0xd7e7fc8f64de9938cc1af4bfe2ed75117b1a0925",
      "function": "buy(bool,uint256)",
      "arguments": [
        "true",
        "0"
      ],
      "transaction": {
        "from": "0x83633e8bed0ad8d741f41ae4e8a1248e611cb7f9",
        "to": "0xd7e7fc8f64de9938cc1af4bfe2ed75117b1a0925",
        "gas": "0x442d8",
        "value": "0x11c37937e08000",
        "input": "0xe24c469b00000000000000000000000000000000000000000000000000000000000000010000000000000000000000000000000000000000000000000000000000000000",
        "nonce": "0x45",
        "chainId": "0xaa36a7"
      },
      "additionalContracts": [],
      "isFixedGasLimit": false
    },
    {
      "hash": "0x00c5cfd96a578e2b9d5af6155941efdba60e369f2dd83d13dfd1ada01ae19fd8",
      "transactionType": "CALL",
      "contractName": "MatchMarket",
      "contractAddress": "0xd7e7fc8f64de9938cc1af4bfe2ed75117b1a0925",
      "function": "buy(bool,uint256)",
      "arguments": [
        "true",
        "0"
      ],
      "transaction": {
        "from": "0x83633e8bed0ad8d741f41ae4e8a1248e611cb7f9",
        "to": "0xd7e7fc8f64de9938cc1af4bfe2ed75117b1a0925",
        "gas": "0x2c664",
        "value": "0x11c37937e08000",
        "input": "0xe24c469b00000000000000000000000000000000000000000000000000000000000000010000000000000000000000000000000000000000000000000000000000000000",
        "nonce": "0x46",
        "chainId": "0xaa36a7"
      },
      "additionalContracts": [],
      "isFixedGasLimit": false
    },
    {
      "hash": "0xcdf00c60ac45f0f1fe160488756adbdd7f912cbae6d83f8530569dff4fed6b4b",
      "transactionType": "CALL",
      "contractName": "MatchMarket",
      "contractAddress": "0xd7e7fc8f64de9938cc1af4bfe2ed75117b1a0925",
      "function": "buy(bool,uint256)",
      "arguments": [
        "true",
        "0"
      ],
      "transaction": {
        "from": "0x83633e8bed0ad8d741f41ae4e8a1248e611cb7f9",
        "to": "0xd7e7fc8f64de9938cc1af4bfe2ed75117b1a0925",
        "gas": "0x30a31",
        "value": "0x11c37937e08000",
        "input": "0xe24c469b00000000000000000000000000000000000000000000000000000000000000010000000000000000000000000000000000000000000000000000000000000000",
        "nonce": "0x47",
        "chainId": "0xaa36a7"
      },
      "additionalContracts": [],
      "isFixedGasLimit": false
    },
    {
      "hash": "0x5a655071f3527ae3d766db95c6af991d096ec762456396016a0096da5b01be3a",
      "transactionType": "CALL",
      "contractName": "MatchMarket",
      "contractAddress": "0xd7e7fc8f64de9938cc1af4bfe2ed75117b1a0925",
      "function": "buy(bool,uint256)",
      "arguments": [
        "true",
        "0"
      ],
      "transaction": {
        "from": "0x83633e8bed0ad8d741f41ae4e8a1248e611cb7f9",
        "to": "0xd7e7fc8f64de9938cc1af4bfe2ed75117b1a0925",
        "gas": "0x2c5e5",
        "value": "0x11c37937e08000",
        "input": "0xe24c469b00000000000000000000000000000000000000000000000000000000000000010000000000000000000000000000000000000000000000000000000000000000",
        "nonce": "0x48",
        "chainId": "0xaa36a7"
      },
      "additionalContracts": [],
      "isFixedGasLimit": false
    }
  ],
  "receipts": [
    {
      "status": "0x1",
      "cumulativeGasUsed": "0x139d9d1",
      "logs": [
        {
          "address": "0xad8f38a0940351f0602cbbd4ab39b4f06c038aaf",
          "topics": [
            "0x8c5be1e5ebec7d5bd14f71427d1e84f3dd0314c0f7b2291e5b200ac8c7c3b925",
            "0x00000000000000000000000083633e8bed0ad8d741f41ae4e8a1248e611cb7f9",
            "0x000000000000000000000000d7e7fc8f64de9938cc1af4bfe2ed75117b1a0925"
          ],
          "data": "0xffffffffffffffffffffffffffffffffffffffffffffffffffffffffffffffff",
          "blockHash": "0xacd4fec964c07ffa05c6c38c5d5b7583ebd2d52ea2b3aa615c65ef4d25b081c9",
          "blockNumber": "0xa8bbdd",
          "blockTimestamp": "0x6a2e95ec",
          "transactionHash": "0x9ac07901ff2325574069c58895a3b8207effd143ee61340d99ce7d47e6d1edfa",
          "transactionIndex": "0xb4",
          "logIndex": "0x233",
          "removed": false
        }
      ],
      "logsBloom": "0x00000000000000000000000000000002000000000000000000000000000000000100000001000000000000000000000000000000000000000000000000200000000000000000000000000000000000000000000000000000000000000000000000000000080000000000000000000000000000000004008000000000000000000000000000000000000000000000000000000000000000000000000000000000020000000000000000000000000000000000000000000000000000000000000000000000000400000000000000000000000000000000000000000000000000000010000000000000000000008000020000000000000000000000000000000000",
      "type": "0x2",
      "transactionHash": "0x9ac07901ff2325574069c58895a3b8207effd143ee61340d99ce7d47e6d1edfa",
      "transactionIndex": "0xb4",
      "blockHash": "0xacd4fec964c07ffa05c6c38c5d5b7583ebd2d52ea2b3aa615c65ef4d25b081c9",
      "blockNumber": "0xa8bbdd",
      "gasUsed": "0xb4bd",
      "effectiveGasPrice": "0x441dde9b",
      "from": "0x83633e8bed0ad8d741f41ae4e8a1248e611cb7f9",
      "to": "0xad8f38a0940351f0602cbbd4ab39b4f06c038aaf",
      "contractAddress": null
    },
    {
      "status": "0x1",
      "cumulativeGasUsed": "0x13cc3b2",
      "logs": [
        {
          "address": "0xad8f38a0940351f0602cbbd4ab39b4f06c038aaf",
          "topics": [
            "0xddf252ad1be2c89b69c2b068fc378daa952ba7f163c4a11628f55a4df523b3ef",
            "0x00000000000000000000000083633e8bed0ad8d741f41ae4e8a1248e611cb7f9",
            "0x00000000000000000000000083633e8bed0ad8d741f41ae4e8a1248e611cb7f9"
          ],
          "data": "0x00000000000000000000000000000000000000000000000000000da475abf000",
          "blockHash": "0xacd4fec964c07ffa05c6c38c5d5b7583ebd2d52ea2b3aa615c65ef4d25b081c9",
          "blockNumber": "0xa8bbdd",
          "blockTimestamp": "0x6a2e95ec",
          "transactionHash": "0x922b0be0d6d30071450ebacd138db287bafbd0ae88a422239d80eb9d9fb5b7d4",
          "transactionIndex": "0xb5",
          "logIndex": "0x234",
          "removed": false
        },
        {
          "address": "0xe03a1074c86cfedd5c142c4f04f1a1536e203543",
          "topics": [
            "0x40e9cecb9f5f1f1c5b9c97dec2917b7ee92e57ba5563708daca94dd84ad7112f",
            "0x31d58360a31edb9ff0468e6eb1604001a58ac8916932d460c303a42601821248",
            "0x000000000000000000000000d7e7fc8f64de9938cc1af4bfe2ed75117b1a0925"
          ],
          "data": "0xfffffffffffffffffffffffffffffffffffffffffffffffffff1ca056ce60000000000000000000000000000000000000000000000000000000a20fbb19d12bd0000000000000000000000000000000000000000b703964a85f75c9ae72eecc0000000000000000000000000000000000000000000000000002386f26fc10000ffffffffffffffffffffffffffffffffffffffffffffffffffffffffffffe5c70000000000000000000000000000000000000000000000000000000000000bb8",
          "blockHash": "0xacd4fec964c07ffa05c6c38c5d5b7583ebd2d52ea2b3aa615c65ef4d25b081c9",
          "blockNumber": "0xa8bbdd",
          "blockTimestamp": "0x6a2e95ec",
          "transactionHash": "0x922b0be0d6d30071450ebacd138db287bafbd0ae88a422239d80eb9d9fb5b7d4",
          "transactionIndex": "0xb5",
          "logIndex": "0x235",
          "removed": false
        },
        {
          "address": "0x66b1393634b35f4c9d9f5e4c8ca2f2740ec242db",
          "topics": [
            "0xddf252ad1be2c89b69c2b068fc378daa952ba7f163c4a11628f55a4df523b3ef",
            "0x000000000000000000000000e03a1074c86cfedd5c142c4f04f1a1536e203543",
            "0x00000000000000000000000083633e8bed0ad8d741f41ae4e8a1248e611cb7f9"
          ],
          "data": "0x000000000000000000000000000000000000000000000000000a20fbb19d12bd",
          "blockHash": "0xacd4fec964c07ffa05c6c38c5d5b7583ebd2d52ea2b3aa615c65ef4d25b081c9",
          "blockNumber": "0xa8bbdd",
          "blockTimestamp": "0x6a2e95ec",
          "transactionHash": "0x922b0be0d6d30071450ebacd138db287bafbd0ae88a422239d80eb9d9fb5b7d4",
          "transactionIndex": "0xb5",
          "logIndex": "0x236",
          "removed": false
        },
        {
          "address": "0xd7e7fc8f64de9938cc1af4bfe2ed75117b1a0925",
          "topics": [
            "0xf83f2b306d0785a8fd91972b82022c61df48599aa76e1fbaef976390424f9f23",
            "0x00000000000000000000000083633e8bed0ad8d741f41ae4e8a1248e611cb7f9",
            "0x0000000000000000000000000000000000000000000000000000000000000001"
          ],
          "data": "0x0000000000000000000000000000000000000000000000000011c37937e08000000000000000000000000000000000000000000000000000000a20fbb19d12bd00000000000000000000000000000000000000000000000000000da475abf000",
          "blockHash": "0xacd4fec964c07ffa05c6c38c5d5b7583ebd2d52ea2b3aa615c65ef4d25b081c9",
          "blockNumber": "0xa8bbdd",
          "blockTimestamp": "0x6a2e95ec",
          "transactionHash": "0x922b0be0d6d30071450ebacd138db287bafbd0ae88a422239d80eb9d9fb5b7d4",
          "transactionIndex": "0xb5",
          "logIndex": "0x237",
          "removed": false
        }
      ],
      "logsBloom": "0x00000000000000000000000000000002000000000000000000004000000000000100000001000008001000000000000000000100040000000000000100040000000000000000000000000208000000000000000000040020000000000000800000000000080000110000000080000000000000000004108000000010000000000000000000000000000010000000000000000000000000000000000020000000000000040000000000000000000000000000000000000000000000000000000000000002000400000000000000000000000000000000000000001000000040001000000000002000004000008000020000000000000000000400000000000000",
      "type": "0x2",
      "transactionHash": "0x922b0be0d6d30071450ebacd138db287bafbd0ae88a422239d80eb9d9fb5b7d4",
      "transactionIndex": "0xb5",
      "blockHash": "0xacd4fec964c07ffa05c6c38c5d5b7583ebd2d52ea2b3aa615c65ef4d25b081c9",
      "blockNumber": "0xa8bbdd",
      "gasUsed": "0x2e9e1",
      "effectiveGasPrice": "0x441dde9b",
      "from": "0x83633e8bed0ad8d741f41ae4e8a1248e611cb7f9",
      "to": "0xd7e7fc8f64de9938cc1af4bfe2ed75117b1a0925",
      "contractAddress": null
    },
    {
      "status": "0x1",
      "cumulativeGasUsed": "0x13ec602",
      "logs": [
        {
          "address": "0xad8f38a0940351f0602cbbd4ab39b4f06c038aaf",
          "topics": [
            "0xddf252ad1be2c89b69c2b068fc378daa952ba7f163c4a11628f55a4df523b3ef",
            "0x00000000000000000000000083633e8bed0ad8d741f41ae4e8a1248e611cb7f9",
            "0x00000000000000000000000083633e8bed0ad8d741f41ae4e8a1248e611cb7f9"
          ],
          "data": "0x00000000000000000000000000000000000000000000000000000e18dffe7800",
          "blockHash": "0xacd4fec964c07ffa05c6c38c5d5b7583ebd2d52ea2b3aa615c65ef4d25b081c9",
          "blockNumber": "0xa8bbdd",
          "blockTimestamp": "0x6a2e95ec",
          "transactionHash": "0x00c5cfd96a578e2b9d5af6155941efdba60e369f2dd83d13dfd1ada01ae19fd8",
          "transactionIndex": "0xb6",
          "logIndex": "0x238",
          "removed": false
        },
        {
          "address": "0xe03a1074c86cfedd5c142c4f04f1a1536e203543",
          "topics": [
            "0x40e9cecb9f5f1f1c5b9c97dec2917b7ee92e57ba5563708daca94dd84ad7112f",
            "0x31d58360a31edb9ff0468e6eb1604001a58ac8916932d460c303a42601821248",
            "0x000000000000000000000000d7e7fc8f64de9938cc1af4bfe2ed75117b1a0925"
          ],
          "data": "0xfffffffffffffffffffffffffffffffffffffffffffffffffff1ca056ce600000000000000000000000000000000000000000000000000000005a278315c474300000000000000000000000000000000000000008e697fb715c2b4b1464b6be5000000000000000000000000000000000000000000000000002386f26fc10000ffffffffffffffffffffffffffffffffffffffffffffffffffffffffffffd22e0000000000000000000000000000000000000000000000000000000000000bb8",
          "blockHash": "0xacd4fec964c07ffa05c6c38c5d5b7583ebd2d52ea2b3aa615c65ef4d25b081c9",
          "blockNumber": "0xa8bbdd",
          "blockTimestamp": "0x6a2e95ec",
          "transactionHash": "0x00c5cfd96a578e2b9d5af6155941efdba60e369f2dd83d13dfd1ada01ae19fd8",
          "transactionIndex": "0xb6",
          "logIndex": "0x239",
          "removed": false
        },
        {
          "address": "0x66b1393634b35f4c9d9f5e4c8ca2f2740ec242db",
          "topics": [
            "0xddf252ad1be2c89b69c2b068fc378daa952ba7f163c4a11628f55a4df523b3ef",
            "0x000000000000000000000000e03a1074c86cfedd5c142c4f04f1a1536e203543",
            "0x00000000000000000000000083633e8bed0ad8d741f41ae4e8a1248e611cb7f9"
          ],
          "data": "0x0000000000000000000000000000000000000000000000000005a278315c4743",
          "blockHash": "0xacd4fec964c07ffa05c6c38c5d5b7583ebd2d52ea2b3aa615c65ef4d25b081c9",
          "blockNumber": "0xa8bbdd",
          "blockTimestamp": "0x6a2e95ec",
          "transactionHash": "0x00c5cfd96a578e2b9d5af6155941efdba60e369f2dd83d13dfd1ada01ae19fd8",
          "transactionIndex": "0xb6",
          "logIndex": "0x23a",
          "removed": false
        },
        {
          "address": "0xd7e7fc8f64de9938cc1af4bfe2ed75117b1a0925",
          "topics": [
            "0xf83f2b306d0785a8fd91972b82022c61df48599aa76e1fbaef976390424f9f23",
            "0x00000000000000000000000083633e8bed0ad8d741f41ae4e8a1248e611cb7f9",
            "0x0000000000000000000000000000000000000000000000000000000000000001"
          ],
          "data": "0x0000000000000000000000000000000000000000000000000011c37937e080000000000000000000000000000000000000000000000000000005a278315c474300000000000000000000000000000000000000000000000000000e18dffe7800",
          "blockHash": "0xacd4fec964c07ffa05c6c38c5d5b7583ebd2d52ea2b3aa615c65ef4d25b081c9",
          "blockNumber": "0xa8bbdd",
          "blockTimestamp": "0x6a2e95ec",
          "transactionHash": "0x00c5cfd96a578e2b9d5af6155941efdba60e369f2dd83d13dfd1ada01ae19fd8",
          "transactionIndex": "0xb6",
          "logIndex": "0x23b",
          "removed": false
        }
      ],
      "logsBloom": "0x00000000000000000000000000000002000000000000000000004000000000000100000001000008001000000000000000000100040000000000000100040000000000000000000000000208000000000000000000040020000000000000800000000000080000110000000080000000000000000004108000000010000000000000000000000000000010000000000000000000000000000000000020000000000000040000000000000000000000000000000000000000000000000000000000000002000400000000000000000000000000000000000000001000000040001000000000002000004000008000020000000000000000000400000000000000",
      "type": "0x2",
      "transactionHash": "0x00c5cfd96a578e2b9d5af6155941efdba60e369f2dd83d13dfd1ada01ae19fd8",
      "transactionIndex": "0xb6",
      "blockHash": "0xacd4fec964c07ffa05c6c38c5d5b7583ebd2d52ea2b3aa615c65ef4d25b081c9",
      "blockNumber": "0xa8bbdd",
      "gasUsed": "0x20250",
      "effectiveGasPrice": "0x441dde9b",
      "from": "0x83633e8bed0ad8d741f41ae4e8a1248e611cb7f9",
      "to": "0xd7e7fc8f64de9938cc1af4bfe2ed75117b1a0925",
      "contractAddress": null
    },
    {
      "status": "0x1",
      "cumulativeGasUsed": "0x140da1b",
      "logs": [
        {
          "address": "0xad8f38a0940351f0602cbbd4ab39b4f06c038aaf",
          "topics": [
            "0xddf252ad1be2c89b69c2b068fc378daa952ba7f163c4a11628f55a4df523b3ef",
            "0x00000000000000000000000083633e8bed0ad8d741f41ae4e8a1248e611cb7f9",
            "0x00000000000000000000000083633e8bed0ad8d741f41ae4e8a1248e611cb7f9"
          ],
          "data": "0x00000000000000000000000000000000000000000000000000000e8d4a510000",
          "blockHash": "0xacd4fec964c07ffa05c6c38c5d5b7583ebd2d52ea2b3aa615c65ef4d25b081c9",
          "blockNumber": "0xa8bbdd",
          "blockTimestamp": "0x6a2e95ec",
          "transactionHash": "0xcdf00c60ac45f0f1fe160488756adbdd7f912cbae6d83f8530569dff4fed6b4b",
          "transactionIndex": "0xb7",
          "logIndex": "0x23c",
          "removed": false
        },
        {
          "address": "0xe03a1074c86cfedd5c142c4f04f1a1536e203543",
          "topics": [
            "0x40e9cecb9f5f1f1c5b9c97dec2917b7ee92e57ba5563708daca94dd84ad7112f",
            "0x31d58360a31edb9ff0468e6eb1604001a58ac8916932d460c303a42601821248",
            "0x000000000000000000000000d7e7fc8f64de9938cc1af4bfe2ed75117b1a0925"
          ],
          "data": "0xfffffffffffffffffffffffffffffffffffffffffffffffffff1ca056ce60000000000000000000000000000000000000000000000000000000396a6ce446b4b0000000000000000000000000000000000000000748deaa5b1950e6ea4763396000000000000000000000000000000000000000000000000002386f26fc10000ffffffffffffffffffffffffffffffffffffffffffffffffffffffffffffc2860000000000000000000000000000000000000000000000000000000000000bb8",
          "blockHash": "0xacd4fec964c07ffa05c6c38c5d5b7583ebd2d52ea2b3aa615c65ef4d25b081c9",
          "blockNumber": "0xa8bbdd",
          "blockTimestamp": "0x6a2e95ec",
          "transactionHash": "0xcdf00c60ac45f0f1fe160488756adbdd7f912cbae6d83f8530569dff4fed6b4b",
          "transactionIndex": "0xb7",
          "logIndex": "0x23d",
          "removed": false
        },
        {
          "address": "0x66b1393634b35f4c9d9f5e4c8ca2f2740ec242db",
          "topics": [
            "0xddf252ad1be2c89b69c2b068fc378daa952ba7f163c4a11628f55a4df523b3ef",
            "0x000000000000000000000000e03a1074c86cfedd5c142c4f04f1a1536e203543",
            "0x00000000000000000000000083633e8bed0ad8d741f41ae4e8a1248e611cb7f9"
          ],
          "data": "0x000000000000000000000000000000000000000000000000000396a6ce446b4b",
          "blockHash": "0xacd4fec964c07ffa05c6c38c5d5b7583ebd2d52ea2b3aa615c65ef4d25b081c9",
          "blockNumber": "0xa8bbdd",
          "blockTimestamp": "0x6a2e95ec",
          "transactionHash": "0xcdf00c60ac45f0f1fe160488756adbdd7f912cbae6d83f8530569dff4fed6b4b",
          "transactionIndex": "0xb7",
          "logIndex": "0x23e",
          "removed": false
        },
        {
          "address": "0xd7e7fc8f64de9938cc1af4bfe2ed75117b1a0925",
          "topics": [
            "0xf83f2b306d0785a8fd91972b82022c61df48599aa76e1fbaef976390424f9f23",
            "0x00000000000000000000000083633e8bed0ad8d741f41ae4e8a1248e611cb7f9",
            "0x0000000000000000000000000000000000000000000000000000000000000001"
          ],
          "data": "0x0000000000000000000000000000000000000000000000000011c37937e08000000000000000000000000000000000000000000000000000000396a6ce446b4b00000000000000000000000000000000000000000000000000000e8d4a510000",
          "blockHash": "0xacd4fec964c07ffa05c6c38c5d5b7583ebd2d52ea2b3aa615c65ef4d25b081c9",
          "blockNumber": "0xa8bbdd",
          "blockTimestamp": "0x6a2e95ec",
          "transactionHash": "0xcdf00c60ac45f0f1fe160488756adbdd7f912cbae6d83f8530569dff4fed6b4b",
          "transactionIndex": "0xb7",
          "logIndex": "0x23f",
          "removed": false
        }
      ],
      "logsBloom": "0x00000000000000000000000000000002000000000000000000004000000000000100000001000008001000000000000000000100040000000000000100040000000000000000000000000208000000000000000000040020000000000000800000000000080000110000000080000000000000000004108000000010000000000000000000000000000010000000000000000000000000000000000020000000000000040000000000000000000000000000000000000000000000000000000000000002000400000000000000000000000000000000000000001000000040001000000000002000004000008000020000000000000000000400000000000000",
      "type": "0x2",
      "transactionHash": "0xcdf00c60ac45f0f1fe160488756adbdd7f912cbae6d83f8530569dff4fed6b4b",
      "transactionIndex": "0xb7",
      "blockHash": "0xacd4fec964c07ffa05c6c38c5d5b7583ebd2d52ea2b3aa615c65ef4d25b081c9",
      "blockNumber": "0xa8bbdd",
      "gasUsed": "0x21419",
      "effectiveGasPrice": "0x441dde9b",
      "from": "0x83633e8bed0ad8d741f41ae4e8a1248e611cb7f9",
      "to": "0xd7e7fc8f64de9938cc1af4bfe2ed75117b1a0925",
      "contractAddress": null
    },
    {
      "status": "0x1",
      "cumulativeGasUsed": "0x142dc0f",
      "logs": [
        {
          "address": "0xad8f38a0940351f0602cbbd4ab39b4f06c038aaf",
          "topics": [
            "0xddf252ad1be2c89b69c2b068fc378daa952ba7f163c4a11628f55a4df523b3ef",
            "0x00000000000000000000000083633e8bed0ad8d741f41ae4e8a1248e611cb7f9",
            "0x00000000000000000000000083633e8bed0ad8d741f41ae4e8a1248e611cb7f9"
          ],
          "data": "0x00000000000000000000000000000000000000000000000000000f761ef61000",
          "blockHash": "0xacd4fec964c07ffa05c6c38c5d5b7583ebd2d52ea2b3aa615c65ef4d25b081c9",
          "blockNumber": "0xa8bbdd",
          "blockTimestamp": "0x6a2e95ec",
          "transactionHash": "0x5a655071f3527ae3d766db95c6af991d096ec762456396016a0096da5b01be3a",
          "transactionIndex": "0xb8",
          "logIndex": "0x240",
          "removed": false
        },
        {
          "address": "0xe03a1074c86cfedd5c142c4f04f1a1536e203543",
          "topics": [
            "0x40e9cecb9f5f1f1c5b9c97dec2917b7ee92e57ba5563708daca94dd84ad7112f",
            "0x31d58360a31edb9ff0468e6eb1604001a58ac8916932d460c303a42601821248",
            "0x000000000000000000000000d7e7fc8f64de9938cc1af4bfe2ed75117b1a0925"
          ],
          "data": "0xfffffffffffffffffffffffffffffffffffffffffffffffffff1ca056ce6000000000000000000000000000000000000000000000000000000027c50f9b97e17000000000000000000000000000000000000000062a4c63bf9afd3c4103bf857000000000000000000000000000000000000000000000000002386f26fc10000ffffffffffffffffffffffffffffffffffffffffffffffffffffffffffffb57d0000000000000000000000000000000000000000000000000000000000000bb8",
          "blockHash": "0xacd4fec964c07ffa05c6c38c5d5b7583ebd2d52ea2b3aa615c65ef4d25b081c9",
          "blockNumber": "0xa8bbdd",
          "blockTimestamp": "0x6a2e95ec",
          "transactionHash": "0x5a655071f3527ae3d766db95c6af991d096ec762456396016a0096da5b01be3a",
          "transactionIndex": "0xb8",
          "logIndex": "0x241",
          "removed": false
        },
        {
          "address": "0x66b1393634b35f4c9d9f5e4c8ca2f2740ec242db",
          "topics": [
            "0xddf252ad1be2c89b69c2b068fc378daa952ba7f163c4a11628f55a4df523b3ef",
            "0x000000000000000000000000e03a1074c86cfedd5c142c4f04f1a1536e203543",
            "0x00000000000000000000000083633e8bed0ad8d741f41ae4e8a1248e611cb7f9"
          ],
          "data": "0x00000000000000000000000000000000000000000000000000027c50f9b97e17",
          "blockHash": "0xacd4fec964c07ffa05c6c38c5d5b7583ebd2d52ea2b3aa615c65ef4d25b081c9",
          "blockNumber": "0xa8bbdd",
          "blockTimestamp": "0x6a2e95ec",
          "transactionHash": "0x5a655071f3527ae3d766db95c6af991d096ec762456396016a0096da5b01be3a",
          "transactionIndex": "0xb8",
          "logIndex": "0x242",
          "removed": false
        },
        {
          "address": "0xd7e7fc8f64de9938cc1af4bfe2ed75117b1a0925",
          "topics": [
            "0xf83f2b306d0785a8fd91972b82022c61df48599aa76e1fbaef976390424f9f23",
            "0x00000000000000000000000083633e8bed0ad8d741f41ae4e8a1248e611cb7f9",
            "0x0000000000000000000000000000000000000000000000000000000000000001"
          ],
          "data": "0x0000000000000000000000000000000000000000000000000011c37937e0800000000000000000000000000000000000000000000000000000027c50f9b97e1700000000000000000000000000000000000000000000000000000f761ef61000",
          "blockHash": "0xacd4fec964c07ffa05c6c38c5d5b7583ebd2d52ea2b3aa615c65ef4d25b081c9",
          "blockNumber": "0xa8bbdd",
          "blockTimestamp": "0x6a2e95ec",
          "transactionHash": "0x5a655071f3527ae3d766db95c6af991d096ec762456396016a0096da5b01be3a",
          "transactionIndex": "0xb8",
          "logIndex": "0x243",
          "removed": false
        }
      ],
      "logsBloom": "0x00000000000000000000000000000002000000000000000000004000000000000100000001000008001000000000000000000100040000000000000100040000000000000000000000000208000000000000000000040020000000000000800000000000080000110000000080000000000000000004108000000010000000000000000000000000000010000000000000000000000000000000000020000000000000040000000000000000000000000000000000000000000000000000000000000002000400000000000000000000000000000000000000001000000040001000000000002000004000008000020000000000000000000400000000000000",
      "type": "0x2",
      "transactionHash": "0x5a655071f3527ae3d766db95c6af991d096ec762456396016a0096da5b01be3a",
      "transactionIndex": "0xb8",
      "blockHash": "0xacd4fec964c07ffa05c6c38c5d5b7583ebd2d52ea2b3aa615c65ef4d25b081c9",
      "blockNumber": "0xa8bbdd",
      "gasUsed": "0x201f4",
      "effectiveGasPrice": "0x441dde9b",
      "from": "0x83633e8bed0ad8d741f41ae4e8a1248e611cb7f9",
      "to": "0xd7e7fc8f64de9938cc1af4bfe2ed75117b1a0925",
      "contractAddress": null
    }
  ],
  "libraries": [],
  "pending": [],
  "returns": {},
  "timestamp": 1781437933244,
  "chain": 11155111,
  "commit": "66372c4"
}