{
  "transactions": [
    {
      "hash": "0x10270f38945f5483a543ee96cfd721bae01d7b4daa726b44eefe00298ed2011c",
      "transactionType": "CALL",
      "contractName": null,
      "contractAddress": "0x0a516076b58fd38717bde0575b973654a2a408e1",
      "function": "approve(address,uint256)",
      "arguments": [
        "0x19990fD9EDc391aed93779ff21D3d0d6E29054E7",
        "2851015155847869"
      ],
      "transaction": {
        "from": "0x83633e8bed0ad8d741f41ae4e8a1248e611cb7f9",
        "to": "0x0a516076b58fd38717bde0575b973654a2a408e1",
        "gas": "0x108f3",
        "value": "0x0",
        "input": "0x095ea7b300000000000000000000000019990fd9edc391aed93779ff21d3d0d6e29054e7000000000000000000000000000000000000000000000000000a20fbb19d12bd",
        "nonce": "0x25",
        "chainId": "0xaa36a7"
      },
      "additionalContracts": [],
      "isFixedGasLimit": false
    },
    {
      "hash": "0x6523750211fa49a63b0067ef2a36554955eeceaeeb8e5a2acdce71852efb424b",
      "transactionType": "CALL",
      "contractName": null,
      "contractAddress": "0x19990fd9edc391aed93779ff21d3d0d6e29054e7",
      "function": "sell(bool,uint256,uint256)",
      "arguments": [
        "true",
        "2851015155847869",
        "0"
      ],
      "transaction": {
        "from": "0x83633e8bed0ad8d741f41ae4e8a1248e611cb7f9",
        "to": "0x19990fd9edc391aed93779ff21d3d0d6e29054e7",
        "gas": "0x34196",
        "value": "0x0",
        "input": "0xde2546590000000000000000000000000000000000000000000000000000000000000001000000000000000000000000000000000000000000000000000a20fbb19d12bd0000000000000000000000000000000000000000000000000000000000000000",
        "nonce": "0x26",
        "chainId": "0xaa36a7"
      },
      "additionalContracts": [],
      "isFixedGasLimit": false
    }
  ],
  "receipts": [
    {
      "status": "0x1",
      "cumulativeGasUsed": "0xb0bdce",
      "logs": [
        {
          "address": "0x0a516076b58fd38717bde0575b973654a2a408e1",
          "topics": [
            "0x8c5be1e5ebec7d5bd14f71427d1e84f3dd0314c0f7b2291e5b200ac8c7c3b925",
            "0x00000000000000000000000083633e8bed0ad8d741f41ae4e8a1248e611cb7f9",
            "0x00000000000000000000000019990fd9edc391aed93779ff21d3d0d6e29054e7"
          ],
          "data": "0x000000000000000000000000000000000000000000000000000a20fbb19d12bd",
          "blockHash": "0xfca6682a74e5f8c7d55a7eaf23f54476ca9f9e2e721fd4ba28c344775fc441cb",
          "blockNumber": "0xa8aa36",
          "blockTimestamp": "0x6a2dbee8",
          "transactionHash": "0x10270f38945f5483a543ee96cfd721bae01d7b4daa726b44eefe00298ed2011c",
          "transactionIndex": "0x6e",
          "logIndex": "0xee",
          "removed": false
        }
      ],
      "logsBloom": "0x00000000000000000000000000000000000000000000000000000000200000000000000000000000000000000000000000000000000000000000000000200000000000000000000000000000002000000000000000002000000000000100000000000000000000000000000000000000000000000004208000000000000000000000000000000000000000000000000000000000000000000000000000000000020000000000000000000000000000000000000000000800000000000000000000000000000400000000000000000000000000000000000000000000000000000010000000000000000000000000000000000000000000000000000000000000",
      "type": "0x2",
      "transactionHash": "0x10270f38945f5483a543ee96cfd721bae01d7b4daa726b44eefe00298ed2011c",
      "transactionIndex": "0x6e",
      "blockHash": "0xfca6682a74e5f8c7d55a7eaf23f54476ca9f9e2e721fd4ba28c344775fc441cb",
      "blockNumber": "0xa8aa36",
      "gasUsed": "0xb52a",
      "effectiveGasPrice": "0x422c77c2",
      "from": "0x83633e8bed0ad8d741f41ae4e8a1248e611cb7f9",
      "to": "0x0a516076b58fd38717bde0575b973654a2a408e1",
      "contractAddress": null
    },
    {
      "status": "0x1",
      "cumulativeGasUsed": "0xb2f7c8",
      "logs": [
        {
          "address": "0xb876ac7cd0a4ebe37b35ed2d08a69d5dd51a2700",
          "topics": [
            "0xddf252ad1be2c89b69c2b068fc378daa952ba7f163c4a11628f55a4df523b3ef",
            "0x00000000000000000000000083633e8bed0ad8d741f41ae4e8a1248e611cb7f9",
            "0x00000000000000000000000083633e8bed0ad8d741f41ae4e8a1248e611cb7f9"
          ],
          "data": "0x000000000000000000000000000000000000000000000000000007c7693ca197",
          "blockHash": "0xfca6682a74e5f8c7d55a7eaf23f54476ca9f9e2e721fd4ba28c344775fc441cb",
          "blockNumber": "0xa8aa36",
          "blockTimestamp": "0x6a2dbee8",
          "transactionHash": "0x6523750211fa49a63b0067ef2a36554955eeceaeeb8e5a2acdce71852efb424b",
          "transactionIndex": "0x6f",
          "logIndex": "0xef",
          "removed": false
        },
        {
          "address": "0xe03a1074c86cfedd5c142c4f04f1a1536e203543",
          "topics": [
            "0x40e9cecb9f5f1f1c5b9c97dec2917b7ee92e57ba5563708daca94dd84ad7112f",
            "0x5601ad9112a9bf46c4869febcd4900748a0b7d313e157e6fb06ab17fed1c42dd",
            "0x00000000000000000000000019990fd9edc391aed93779ff21d3d0d6e29054e7"
          ],
          "data": "0x000000000000000000000000000000000000000000000000000e23477db805d4fffffffffffffffffffffffffffffffffffffffffffffffffff5df044e62ed430000000000000000000000000000000000000000ffc7f25ef18dc3a8a747f690000000000000000000000000000000000000000000000000002386f26fc10000ffffffffffffffffffffffffffffffffffffffffffffffffffffffffffffffee0000000000000000000000000000000000000000000000000000000000000bb8",
          "blockHash": "0xfca6682a74e5f8c7d55a7eaf23f54476ca9f9e2e721fd4ba28c344775fc441cb",
          "blockNumber": "0xa8aa36",
          "blockTimestamp": "0x6a2dbee8",
          "transactionHash": "0x6523750211fa49a63b0067ef2a36554955eeceaeeb8e5a2acdce71852efb424b",
          "transactionIndex": "0x6f",
          "logIndex": "0xf0",
          "removed": false
        },
        {
          "address": "0x0a516076b58fd38717bde0575b973654a2a408e1",
          "topics": [
            "0xddf252ad1be2c89b69c2b068fc378daa952ba7f163c4a11628f55a4df523b3ef",
            "0x00000000000000000000000083633e8bed0ad8d741f41ae4e8a1248e611cb7f9",
            "0x000000000000000000000000e03a1074c86cfedd5c142c4f04f1a1536e203543"
          ],
          "data": "0x000000000000000000000000000000000000000000000000000a20fbb19d12bd",
          "blockHash": "0xfca6682a74e5f8c7d55a7eaf23f54476ca9f9e2e721fd4ba28c344775fc441cb",
          "blockNumber": "0xa8aa36",
          "blockTimestamp": "0x6a2dbee8",
          "transactionHash": "0x6523750211fa49a63b0067ef2a36554955eeceaeeb8e5a2acdce71852efb424b",
          "transactionIndex": "0x6f",
          "logIndex": "0xf1",
          "removed": false
        },
        {
          "address": "0x19990fd9edc391aed93779ff21d3d0d6e29054e7",
          "topics": [
            "0x5c7fc5fe75305fafcd56d45a72aa79d07ce6f22966e5c0b8ddefcbe6ae5f3930",
            "0x00000000000000000000000083633e8bed0ad8d741f41ae4e8a1248e611cb7f9",
            "0x0000000000000000000000000000000000000000000000000000000000000001"
          ],
          "data": "0x000000000000000000000000000000000000000000000000000a20fbb19d12bd000000000000000000000000000000000000000000000000000b4f6c649337dd000000000000000000000000000000000000000000000000000007c7693ca197",
          "blockHash": "0xfca6682a74e5f8c7d55a7eaf23f54476ca9f9e2e721fd4ba28c344775fc441cb",
          "blockNumber": "0xa8aa36",
          "blockTimestamp": "0x6a2dbee8",
          "transactionHash": "0x6523750211fa49a63b0067ef2a36554955eeceaeeb8e5a2acdce71852efb424b",
          "transactionIndex": "0x6f",
          "logIndex": "0xf2",
          "removed": false
        }
      ],
      "logsBloom": "0x00004000000000000000000000000000000000000000000000000000200200000008000010000002000000000000000000000100040000800000000000040000000000000000000000000008002000000000000000042020000000000100000000000000000000000000000080000000400000000004308000000010000000000000000000000000000010000000000000000000000000000000000000000000000000000000000000000000000000000000000000000800000000000000002000000002000400000000000000000000000000000000000000001000000040001000000000000000004000000000000000000100000020001000000000000000",
      "type": "0x2",
      "transactionHash": "0x6523750211fa49a63b0067ef2a36554955eeceaeeb8e5a2acdce71852efb424b",
      "transactionIndex": "0x6f",
      "blockHash": "0xfca6682a74e5f8c7d55a7eaf23f54476ca9f9e2e721fd4ba28c344775fc441cb",
      "blockNumber": "0xa8aa36",
      "gasUsed": "0x239fa",
      "effectiveGasPrice": "0x422c77c2",
      "from": "0x83633e8bed0ad8d741f41ae4e8a1248e611cb7f9",
      "to": "0x19990fd9edc391aed93779ff21d3d0d6e29054e7",
      "contractAddress": null
    }
  ],
  "libraries": [],
  "pending": [],
  "returns": {},
  "timestamp": 1781382890116,
  "chain": 11155111,
  "commit": "45d1beb"
}