{
  "transactions": [
    {
      "hash": "0xceebf097603497bd927f43979e137210e2458cec02099bdb0c1a440422bdd57e",
      "transactionType": "CALL",
      "contractName": "MatchMarket",
      "contractAddress": "0xed61cea1658bf0c2f934882a2a27c4b6948c6207",
      "function": "removeLimits()",
      "arguments": [],
      "transaction": {
        "from": "0x83633e8bed0ad8d741f41ae4e8a1248e611cb7f9",
        "to": "0xed61cea1658bf0c2f934882a2a27c4b6948c6207",
        "gas": "0x9829",
        "value": "0x0",
        "input": "0x751039fc",
        "nonce": "0x4c",
        "chainId": "0xaa36a7"
      },
      "additionalContracts": [],
      "isFixedGasLimit": false
    },
    {
      "hash": "0xc08cabfb1f93aa260c1b1313f4e5e140ef32d7ab138cc8cf2af3d165ddf6ae5e",
      "transactionType": "CALL",
      "contractName": "YubiiToken",
      "contractAddress": "0xacb4474196bda1d8ba0ecc7b3b72178c09cd2f21",
      "function": "approve(address,uint256)",
      "arguments": [
        "0xED61ceA1658bF0c2F934882a2A27C4b6948c6207",
        "115792089237316195423570985008687907853269984665640564039457584007913129639935"
      ],
      "transaction": {
        "from": "0x83633e8bed0ad8d741f41ae4e8a1248e611cb7f9",
        "to": "0xacb4474196bda1d8ba0ecc7b3b72178c09cd2f21",
        "gas": "0x96a4",
        "value": "0x0",
        "input": "0x095ea7b3000000000000000000000000ed61cea1658bf0c2f934882a2a27c4b6948c6207ffffffffffffffffffffffffffffffffffffffffffffffffffffffffffffffff",
        "nonce": "0x4d",
        "chainId": "0xaa36a7"
      },
      "additionalContracts": [],
      "isFixedGasLimit": false
    },
    {
      "hash": "0xfde152ff266c5e0cc0959aec0fbad691983dd26fc48beec3d9835e6970f7feb3",
      "transactionType": "CALL",
      "contractName": "MatchMarket",
      "contractAddress": "0xed61cea1658bf0c2f934882a2a27c4b6948c6207",
      "function": "buy(bool,uint256)",
      "arguments": [
        "true",
        "0"
      ],
      "transaction": {
        "from": "0x83633e8bed0ad8d741f41ae4e8a1248e611cb7f9",
        "to": "0xed61cea1658bf0c2f934882a2a27c4b6948c6207",
        "gas": "0x2d651",
        "value": "0x470de4df820000",
        "input": "0xe24c469b00000000000000000000000000000000000000000000000000000000000000010000000000000000000000000000000000000000000000000000000000000000",
        "nonce": "0x4e",
        "chainId": "0xaa36a7"
      },
      "additionalContracts": [],
      "isFixedGasLimit": false
    }
  ],
  "receipts": [
    {
      "status": "0x1",
      "cumulativeGasUsed": "0xaae39d",
      "logs": [],
      "logsBloom": "0x00000000000000000000000000000000000000000000000000000000000000000000000000000000000000000000000000000000000000000000000000000000000000000000000000000000000000000000000000000000000000000000000000000000000000000000000000000000000000000000000000000000000000000000000000000000000000000000000000000000000000000000000000000000000000000000000000000000000000000000000000000000000000000000000000000000000000000000000000000000000000000000000000000000000000000000000000000000000000000000000000000000000000000000000000000000",
      "type": "0x2",
      "transactionHash": "0xceebf097603497bd927f43979e137210e2458cec02099bdb0c1a440422bdd57e",
      "transactionIndex": "0x99",
      "blockHash": "0xbfa781c800e19889a705077e2f42a0500c9d46f6eeb747def2a5d3b13a7da83e",
      "blockNumber": "0xa8c4af",
      "gasUsed": "0x680b",
      "effectiveGasPrice": "0x462405f5",
      "from": "0x83633e8bed0ad8d741f41ae4e8a1248e611cb7f9",
      "to": "0xed61cea1658bf0c2f934882a2a27c4b6948c6207",
      "contractAddress": null
    },
    {
      "status": "0x1",
      "cumulativeGasUsed": "0xae43a0",
      "logs": [
        {
          "address": "0xacb4474196bda1d8ba0ecc7b3b72178c09cd2f21",
          "topics": [
            "0x8c5be1e5ebec7d5bd14f71427d1e84f3dd0314c0f7b2291e5b200ac8c7c3b925",
            "0x00000000000000000000000083633e8bed0ad8d741f41ae4e8a1248e611cb7f9",
            "0x000000000000000000000000ed61cea1658bf0c2f934882a2a27c4b6948c6207"
          ],
          "data": "0xffffffffffffffffffffffffffffffffffffffffffffffffffffffffffffffff",
          "blockHash": "0xbfa781c800e19889a705077e2f42a0500c9d46f6eeb747def2a5d3b13a7da83e",
          "blockNumber": "0xa8c4af",
          "blockTimestamp": "0x6a2effc4",
          "transactionHash": "0xc08cabfb1f93aa260c1b1313f4e5e140ef32d7ab138cc8cf2af3d165ddf6ae5e",
          "transactionIndex": "0x9b",
          "logIndex": "0x13d",
          "removed": false
        }
      ],
      "logsBloom": "0x00000000000000000000000000000000000000000000000000000000000000000000000040000000000000000000000000000000000000000000000000200000000000004000000000000000000000000000000000000000000000000000000000000040000000000000000000000000000000000004008010000000000000000000000000002000000000000000000000000000000000000000000000000000020000000000000000000000000000000000000000000000000000000000000000000000000400000000000000000000000000000000000000020000000000000010000000000000000000000000000000000000000000000000000000000000",
      "type": "0x2",
      "transactionHash": "0xc08cabfb1f93aa260c1b1313f4e5e140ef32d7ab138cc8cf2af3d165ddf6ae5e",
      "transactionIndex": "0x9b",
      "blockHash": "0xbfa781c800e19889a705077e2f42a0500c9d46f6eeb747def2a5d3b13a7da83e",
      "blockNumber": "0xa8c4af",
      "gasUsed": "0x6701",
      "effectiveGasPrice": "0x462405f5",
      "from": "0x83633e8bed0ad8d741f41ae4e8a1248e611cb7f9",
      "to": "0xacb4474196bda1d8ba0ecc7b3b72178c09cd2f21",
      "contractAddress": null
    },
    {
      "status": "0x1",
      "cumulativeGasUsed": "0xb366eb",
      "logs": [
        {
          "address": "0xacb4474196bda1d8ba0ecc7b3b72178c09cd2f21",
          "topics": [
            "0xddf252ad1be2c89b69c2b068fc378daa952ba7f163c4a11628f55a4df523b3ef",
            "0x00000000000000000000000083633e8bed0ad8d741f41ae4e8a1248e611cb7f9",
            "0x00000000000000000000000083633e8bed0ad8d741f41ae4e8a1248e611cb7f9"
          ],
          "data": "0x00000000000000000000000000000000000000000000000000003691d6afc000",
          "blockHash": "0xbfa781c800e19889a705077e2f42a0500c9d46f6eeb747def2a5d3b13a7da83e",
          "blockNumber": "0xa8c4af",
          "blockTimestamp": "0x6a2effc4",
          "transactionHash": "0xfde152ff266c5e0cc0959aec0fbad691983dd26fc48beec3d9835e6970f7feb3",
          "transactionIndex": "0x9d",
          "logIndex": "0x140",
          "removed": false
        },
        {
          "address": "0xe03a1074c86cfedd5c142c4f04f1a1536e203543",
          "topics": [
            "0x40e9cecb9f5f1f1c5b9c97dec2917b7ee92e57ba5563708daca94dd84ad7112f",
            "0xc61d2591c9abc580fae53ce54a129c28acd8816785e6a7a6c6d1635abeb71b99",
            "0x000000000000000000000000ed61cea1658bf0c2f934882a2a27c4b6948c6207"
          ],
          "data": "0xffffffffffffffffffffffffffffffffffffffffffffffffffc72815b398000000000000000000000000000000000000000000000000000000139f1687ace04a00000000000000000000000000000000000000005fb3ce3c19e0c07e1cdd7479000000000000000000000000000000000000000000000000002386f26fc10000ffffffffffffffffffffffffffffffffffffffffffffffffffffffffffffb3200000000000000000000000000000000000000000000000000000000000000bb8",
          "blockHash": "0xbfa781c800e19889a705077e2f42a0500c9d46f6eeb747def2a5d3b13a7da83e",
          "blockNumber": "0xa8c4af",
          "blockTimestamp": "0x6a2effc4",
          "transactionHash": "0xfde152ff266c5e0cc0959aec0fbad691983dd26fc48beec3d9835e6970f7feb3",
          "transactionIndex": "0x9d",
          "logIndex": "0x141",
          "removed": false
        },
        {
          "address": "0xed949efee89ef967146a0a9e7f2c87c0f7b28c08",
          "topics": [
            "0xddf252ad1be2c89b69c2b068fc378daa952ba7f163c4a11628f55a4df523b3ef",
            "0x000000000000000000000000e03a1074c86cfedd5c142c4f04f1a1536e203543",
            "0x00000000000000000000000083633e8bed0ad8d741f41ae4e8a1248e611cb7f9"
          ],
          "data": "0x00000000000000000000000000000000000000000000000000139f1687ace04a",
          "blockHash": "0xbfa781c800e19889a705077e2f42a0500c9d46f6eeb747def2a5d3b13a7da83e",
          "blockNumber": "0xa8c4af",
          "blockTimestamp": "0x6a2effc4",
          "transactionHash": "0xfde152ff266c5e0cc0959aec0fbad691983dd26fc48beec3d9835e6970f7feb3",
          "transactionIndex": "0x9d",
          "logIndex": "0x142",
          "removed": false
        },
        {
          "address": "0xed61cea1658bf0c2f934882a2a27c4b6948c6207",
          "topics": [
            "0xf83f2b306d0785a8fd91972b82022c61df48599aa76e1fbaef976390424f9f23",
            "0x00000000000000000000000083633e8bed0ad8d741f41ae4e8a1248e611cb7f9",
            "0x0000000000000000000000000000000000000000000000000000000000000001"
          ],
          "data": "0x00000000000000000000000000000000000000000000000000470de4df82000000000000000000000000000000000000000000000000000000139f1687ace04a00000000000000000000000000000000000000000000000000003691d6afc000",
          "blockHash": "0xbfa781c800e19889a705077e2f42a0500c9d46f6eeb747def2a5d3b13a7da83e",
          "blockNumber": "0xa8c4af",
          "blockTimestamp": "0x6a2effc4",
          "transactionHash": "0xfde152ff266c5e0cc0959aec0fbad691983dd26fc48beec3d9835e6970f7feb3",
          "transactionIndex": "0x9d",
          "logIndex": "0x143",
          "removed": false
        }
      ],
      "logsBloom": "0x00000000000000000000000000000000000000001000000000004000000000000000000040000000000000000080000000000100040000000000000000040000000000004000000000000008000800000000000000040020002000000000800000000040000000000000000080000000000000000004108010000010000000000000000000002000000010000000000000020008000000000000000020000000000000000000000000000000200000000000000000000000000000000000000000000002000400000000000000000000000000000000000000021000000040001010000000000000004000000000000400000000000000000000000000000000",
      "type": "0x2",
      "transactionHash": "0xfde152ff266c5e0cc0959aec0fbad691983dd26fc48beec3d9835e6970f7feb3",
      "transactionIndex": "0x9d",
      "blockHash": "0xbfa781c800e19889a705077e2f42a0500c9d46f6eeb747def2a5d3b13a7da83e",
      "blockNumber": "0xa8c4af",
      "gasUsed": "0x1f0a1",
      "effectiveGasPrice": "0x462405f5",
      "from": "0x83633e8bed0ad8d741f41ae4e8a1248e611cb7f9",
      "to": "0xed61cea1658bf0c2f934882a2a27c4b6948c6207",
      "contractAddress": null
    }
  ],
  "libraries": [],
  "pending": [],
  "returns": {},
  "timestamp": 1781465028420,
  "chain": 11155111,
  "commit": "95aa742"
}